:020000040800F2
:1000000098040020494F0008654E0008514A000836
:100010006D4E0008714E0008754E0008794E0008BC
:100020007D4E0008814E0008854E0008894E00086C
:100030008D4E0008914E0008954E0008994E00081C
:100040009D4E0008A14E0008A54E0008A94E0008CC
:10005000AD4E0008B14E0008B54E0008B94E00087C
:10006000BD4E0008C14E0008C54E0008C94E00082C
:10007000CD4E0008D14E0008D54E0008D94E0008DC
:10008000DD4E0008E14E0008E54E0008E94E00088C
:10009000FD4A0008F14E0008F54E0008F94E000830
:1000A000FD4E0008014F0008054F0008094F0008E9
:1000B0000D4F0008BD4A0008154F0008194F0008F1
:1000C0001D4F0008214F0008254F0008294F000848
:1000D0002D4F0008314F0008354F0008394F0008F8
:1000E0003D4F0008414F0008454F000810B4002460
:1000F000094A0A4853680A4923F47F4343F40843F2
:100100005360136943F0406313610460CB6910BC12
:1001100023F48003CB617047000C0140005800407D
:10012000001002402DE9F04F00244FF000084FF07E
:1001300000098BB0DDF860E0199E974F06948EF8A9
:10014000004007943470CDE908897D699DF850908E
:1001500015F00205CDE902129DF854A09DF85880D3
:10016000059308BF019500F0988001943A4640F24B
:1001700096548A499369DF0603F0040540F1D8805C
:100180000023179F3B70002D00F0AC804FF0000C57
:1001900040F204456746CDF81080CDF860E0DDF808
:1001A0000C80DDF808E019968B6806930797536971
:1001B000234204D00FE000BF536923420BD18E6865
:1001C000069B0696DDF81CB09B1B23F07F435B4427
:1001D00098420793EFD85369DB0600F1C580536955
:1001E0009E073CD4536913F4807F536940F0CB8061
:1001F0005B0534D48B68DDF818B00693ABEB0303D2
:10020000DDF81CB023F07F435B449842079340F233
:10021000B480199B1B784B457DD21EF803301361C7
:10022000199B199E1B78013333708B6806930797CF
:1002300053692B4204D00FE000BF53692B420BD10E
:100240008E68069B0696DDF81CB09B1B23F07F434F
:100250005B4498420793EFD853695E05A4D5DDF857
:100260001080DDE918E600238D6806950793536931
:100270005D0503D400BF53695B05FBD55569536920
:1002800015F4806F019D08BF032523F48063019559
:10029000536153699B073FF56DAF01980BB0BDE803
:1002A000F08F53699F07F4D45369DB0651D4536927
:1002B000DF0544D48F68069B0697DB1B079F23F05E
:1002C0007F433B44984207934BD99EF80030D2F8C5
:1002D00010B0434506D2059F03F1010C8EF800C013
:1002E00007F803B08B6806930795536913F4AB7F47
:1002F00005D0D6E700BF536913F4AB7FD1D18F6827
:10030000069B0697DB1B079F23F07F433B448342FA
:100310000793EFD3C5E718F80CB00CF10103DBB27B
:10032000534534BF9C464FF0000CC2F810B077E73D
:100330001B064CBF02230123179F3B7023E70621B6
:1003400053690191019823F4887353610BB0BDE8A0
:10035000F08F1368019843F0010313600BB0BDE800
:10036000F08F0F23019394E71368DDF8108043F0BA
:100370000103DDE918E6136075E703230193019893
:100380000BB0BDE8F08F06210191019823F488732A
:1003900053610BB0BDE8F08F0058004010E000E062
:1003A000F0B4284CB4F8BE2011073FD594F887303C
:1003B00003F1806303F5C0631B01DD68C5F3090524
:1003C000A5B3416C033525F003054B19402B2FD8FD
:1003D000026C436411446D08C1F34401002394F896
:1003E0008720DFB204EB02125668013356F827600B
:1003F0004A1CAB4220F8116002F01F01EFD3B4F8A1
:10040000BE20130712D594F8873022F008029B0013
:1004100003F1804303F5B8431968A4F8BE2021F422
:10042000484222F0F00282F440521A60F0BC704759
:100430004023066C5D1A6D083144C1F344014364E6
:10044000CCD1E0E70000002038B5044619B9436C70
:100450006BB1184638BD436C0D469942F9D9204618
:10046000FFF79EFF636CAB42F9D3184638BDFFF728
:1004700097FF436C184638BD436C033121F00301EC
:10048000994228BF1946026C5B1A114401F03F01E2
:10049000C0E91013704700BFF8B507460E4E0F4D68
:1004A00084B200E030BF234632460121284603F0E3
:1004B0000FFF0028F6D0402F00D0F8BD064D074CA6
:1004C00000E030BF00232A460121204603F000FF50
:1004D0000028F6D0F8BD00BF8001002000000020F9
:1004E000F0B44FF6FF7C01264FF0005500270F4B6C
:1004F00080B2DA6942F00202DA61DA691A6942F01E
:1005000002021A611C690A4A24F002041C61094BA8
:10051000A2F828C056611761C3F880519085D66053
:100520001D6009B109231360F0BC70470010024040
:100530000004004000E100E000224FF0005010B441
:100540000A490B4C0B4B22602261C1F88001C1F8B3
:100550008000D969084821F00201D96102609A69D6
:1005600010BC22F400629A61704700BF00E100E015
:100570000004004000100240002C01402B4B2C488E
:100580001A46016870B441F012010160196841F423
:100590008031196013689903FCD55368234943F4EB
:1005A00080635360536843F4E8135360136843F067
:1005B000807313600B689B01FCD54B681B4A23F0CA
:1005C000030343F002034B60536803F00C03082B52
:1005D000FAD14FF4801500216FF07F440520536855
:1005E000144E23F480035360D36943F40003D361B2
:1005F000D369136943F400031361136923F40003FF
:100600001361936943F01D0393619369D36843F0C9
:100610001D03D360D36823F01D03D360064B356000
:10062000196099605C60186070BC704700100240EF
:100630000020024000E100E010E000E04FF0807296
:1006400030B400254FF088344FF400500D4B0E4964
:100650005A604A6842F47F224A600C49C3F80C5C35
:100660000B4AD3F8005CC3F8001CD3F8041CC3F891
:10067000044C1061536830BC23F4700343F4C0038E
:10068000536070470000014000080140888488885A
:1006900000100140584AF0B5D2F8803057499D1CEF
:1006A000D1F818C0DF1C1E1DDC1D581C053303F0DB
:1006B0003F0305F03F0507F03F0706F03F0604F053
:1006C0003F0400F03F0017441544164414441044FE
:1006D0001A444CF4805395F8405097F840E092F853
:1006E000402096F8406094F8404090F840008B61BC
:1006F0008B69CB68C5F3C00C43F48053CB60CB68E7
:10070000C5F3800723F48053CB60C5F34003110485
:10071000002835D004250EF0070E43EACE0343EA45
:100720004703374843EACC1343F4517303604560F1
:10073000002C5ED0012C50D03248036943F01003E6
:100740000361002E51D0012E14BF4FF480044024C9
:100750004FF6FF764FF000652A4B18692043186169
:10076000284C1305206843EA027300EA060213438B
:100770000B432B4343F0004343F400032360F0BDDD
:1007800015F0100F0CBF4FF4007100210EF0070E92
:1007900043EACE030B4343EACC13194943EA470328
:1007A00043F040030B60EB074FEA026248600AD552
:1007B000A1F520510B689BB21A4342F0984242F4D3
:1007C00090020A60F0BD0F490B689BB21A4342F0D9
:1007D000904242F490020A60F0BDA0F520500369F7
:1007E00043F480130361002EADD14FF08065064EB7
:1007F000B6E74FF48021A4E78001002000100240FA
:100800000030014000080140FFFF00030020094ABA
:1008100010B41368084C9BB243F08843074943F473
:1008200088031360D06020608B6910BC23F4805370
:100830008B61704700080140003001400010024009
:100840002DE9F04F0027DFF8F4E02426DEF88030B1
:10085000384A591C01F03F01714491F84040591D3C
:1008600001F03F01714491F840C004F00400B84227
:1008700018BF4FF400484FFA8CF00ABFB8460B255A
:100880002525B842B4BF002001205908053101F0E8
:100890001F010EEB4101B1F840A003F10409D16939
:1008A00009F03F09F14441F48001023399F840B066
:1008B00003F03F03D161D1699E441369DFF8809052
:1008C00043F4800313611369C4F3400123F48003EC
:1008D00013619EF840E048EA81314FEA0E2343EA73
:1008E0000E33D9F804E04FEA4B022EF47F4E43EA70
:1008F0000E0343F44C43C9F804300F4B42F48042DA
:1009000041EA0A011F6040EA4C005E60D9611D6245
:100910009A602207D86003D501221A60BDE8F08FE3
:1009200040F2014204F0010442EA84141C60BDE874
:10093000F08F00BF001002400058004080010020EE
:10094000000C0140034BDB695B0201D5FFF7CEBB16
:10095000704700BF001002406D482DE9F04FD0F8FD
:10096000803087B05C1C9A1C04F03F044FEA530CA3
:10097000044402F03F0294F840400244DF1C191D79
:100980000CF1050C053392F8406003F03F030CF0C6
:100990001F0C07F03F0701F03F01074400EB4C0C30
:1009A0000144184404F0100397F840A0029390F813
:1009B0004070C4F3001316F00100C4F38018C4F3B0
:1009C00040150093C4F3C002C4F38009C4F3400B84
:1009D000BCF8403091F8401004F00104019051D06F
:1009E0004C48C069C00700F18A80DFF828C14A4836
:1009F000DCF81CE05B104EF4003ECCF81CE0DCF8A8
:100A00001CE0DCF810E04EF4003ECCF810E0DCF81E
:100A100010E02EF4003ECCF810E0AD00240245EAD0
:100A2000023242EA4A2244EA013442EAC80844EA6D
:100A30004B24009A836044EA8924019B44EAC2243F
:100A400048F400520461C260A3B30921324AC6F3DC
:100A500040038B40C6F3800643EA062653692F4CB9
:100A60001E43566122683B01120C120443EA072719
:100A7000174347F4084747F088072760216107B00C
:100A8000BDE8F08FDFF88CC02548DCF818E04EF4A4
:100A9000804ECCF818E0DCF818E0DCF80CE04EF4FE
:100AA000804ECCF80CE0DCF80CE02EF4804ECCF854
:100AB0000CE0B2E7029B39019BB9184C626822F442
:100AC0007F6222F00F0242EA010343F4086343F01D
:100AD000080363604FF48062104B1A6107B0BDE8F1
:100AE000F08F0E4A536823F47F6323F00F030B4308
:100AF0001F4347F4086747F008075760EAE7CDE966
:100B00000413039200F080F9DDE90413039A6CE703
:100B10008001002000100240004400400008014015
:100B200000380140144B10B498424FF00004134AAF
:100B300013490FD013681B0C1B0443F4884343F084
:100B400044031360D460C460CB6910BC23F4003349
:100B5000CB617047536823F47F6323F00F0343F4A2
:100B6000886343F004035360D460C4608B6910BC95
:100B700023F480438B617047003801400008014036
:100B8000001002402DE9F041022401254FF0030836
:100B90004E4E8C467168DFF844E121F4404141F447
:100BA0000041716069001CEA050FCDB20BD0A61E92
:100BB000DEF8001008FA06F708FA04F63E4321EAC8
:100BC0000606CEF800600434222CEBD13F498C6934
:100BD00044F400748C618C69CC6844F40074CC607B
:100BE000CC6824F40074CC60002868D00021551E25
:100BF0000E460F468C465C1E0BE04CEA030C14F8C4
:100C0000013F01EB410201319340814246EA030674
:100C10000DD015F8012F01EB8103062A02FA03F328
:100C2000EBD901EB81031E3B9A401743E7E74503ED
:100C300045F40065DFF8A8E04FF000087446244B47
:100C400001380005C3F834C01F631E61D86299687B
:100C5000204A41F001019960DEF80830C2F888307E
:100C6000C2F88C80A168D2F88830C2F888105B1A6C
:100C7000D2F88C1023F07F430B44232BC2F88C3026
:100C8000F0D9134A936843F00903936093681C07F3
:100C900003D500BF93681907FBD40D4A936843F04E
:100CA000050393609368580703D500BF93685B07FB
:100CB000FBD4074B084A5D609A60BDE8F0810646A8
:100CC000074684464FF40065B4E700BF00100240B9
:100CD000002401408001002001001E0000080140A6
:100CE00010E000E0002230B44FF6F07513481449CC
:100CF000144B02608A60596902F1804221F00101BF
:100D000059619C6902F5843224F400749C61106876
:100D10000D49284001431160DB69DB0709D41368E2
:100D200023F47F4323F0F00343F4884343F040036C
:100D30001360002230BC054BDA60704708000240A7
:100D40000024014000100240040044440008014017
:100D5000002330B44FF6F07521492248D1F88020A5
:100D6000C360541C04F03F04023203680C4402F0D8
:100D70003F02114494F8402091F840102B40134357
:100D800043EA810343EA814343EA815343EA8163AF
:100D900043EA817343EA024343EA025343EA0263AC
:100DA00043EA0273104C0360E369DB0714D4046860
:100DB0008B0124F47F4424F0F00443EA812323438D
:100DC00043EA813141EA021141EA022141EA023259
:100DD000026030BCFF207047F12030BC704700BF7C
:100DE00080010020000801400010024000204FF068
:100DF00066314FF04432034BD860186819601968A7
:100E00001A6070470008014010B44FF08040002481
:100E10000B4A0C49136823F47F4323F0F00343F497
:100E2000084343F080031360136943F460231361A4
:100E30000460CB6910BC23F00103CB61704700BF95
:100E400000080140001002404FF04041044A53683E
:100E500023F4700343F4800353601161704700BFB3
:100E6000000C0140002330B4104D84B0AC680094F5
:100E7000019303681B060FD403E000BF03681C0640
:100E80000AD4AC68009B00941B1B019C23F07F4399
:100E900023449A420193F0D803681B0652BF0420F2
:100EA0000171002004B030BC704700BF10E000E0CA
:100EB000F0B4002300260027054684B000680093A4
:100EC0000193CDE902672C6910F0080F14BF0520CB
:100ED0001846240509D5244EB468009401932B6864
:100EE0009F060DD52B689A0639D52B689B0616D41C
:100EF000012004B0F0BC704700BF2B689C06F1D401
:100F0000B468009B00941B1B019C23F07F43234487
:100F10009A420193F0D82B689A06E6D41FE02A681B
:100F20002B6812F4807F18BF072013F0040F2B6882
:100F30002A6818BF082013F0010F2B6818BF09207A
:100F400012F0020F18BF0A20DB0503D52B6823F42B
:100F500080732B602B790B7004B0F0BC70470320BA
:100F600004B0F0BC704700BF10E000E02DE9F04F86
:100F7000002489B09B46DDF850909DF84C30129DBE
:100F800000910192C9F800400293002A48D082469D
:100F9000264EDFF8A08007E0D9F80040019B01341D
:100FA0009C42C9F800403BD2009B5A46195D50460E
:100FB000FFF758FF044600282ED1002DECD0B3686F
:100FC00004930590B268049B04929B1A059A23F03F
:100FD0007F4313449D420593DED9154F029C039035
:100FE0000AE0B268049B04929B1A059A23F07F439F
:100FF00013449D420593CFD900213846FFF724FAC8
:101000000028EED0D8F8803003F03F03434493F833
:101010004030A342E5D1039C204609B0BDE8F08FE3
:101020000024204609B0BDE8F08F00BF10E000E0CA
:10103000C0010020800100202DE9F04F002589B07B
:10104000DDF85480CDE90112DDE912A49DF850B01D
:101050000393C8F80050002B4CD02B468146274DF7
:10106000274F07E0D8F80030039A01339342C8F8BD
:1010700000303FD2019A4846D15C5246FFF7F2FE5B
:10108000002834D1D8F80010029B48461944FFF7D5
:101090000FFF60BB002CE5D0AB6804930590AA68F5
:1010A000049B04929B1A059A23F07F4313449C42AD
:1010B0000593D7D9134E0AE0AA68049B04929B1AA1
:1010C000059A23F07F4313449C420593CAD900211B
:1010D0003046FFF7B9F90028EED0D7F8803003F09A
:1010E0003F033B4493F840305B45E5D1022009B013
:1010F000BDE8F08F002009B0BDE8F08F10E000E0FF
:1011000080010020C00100202DE9F04F00254FF0A4
:10111000000B4FF0000A87B0119C0295984603958A
:101120002560CDE904AB01929DF840B0002A4FD074
:101130000646DFF8A4900F4600952946254D09F193
:10114000400AAB6802930023039319E0AA68029B4C
:1011500002929B1A039A23F07F431344984503930A
:1011600028D900215046FFF76FF940B1D9F88030F7
:1011700003F03F034B4493F840305B4521D0216896
:10118000002230463944FFF793FE0128DED0009B51
:1011900021688342B8BF03460093019B0131994205
:1011A0002160CED3009B8342B8BF0346184607B0E8
:1011B000BDE8F08F00980128B8BF012007B0BDE856
:1011C000F08F00980228B8BF022007B0BDE8F08F6A
:1011D0000198F3E710E000E080010020F0B4002463
:1011E0003C4E84B0B5683C4F00950194BC68A5079F
:1011F0000FD403E000BFBC68A4070AD4B568009C04
:101200000095641B019D24F07F442C44A24201946C
:10121000F0D8314CA468A50757D5B3B100272F4D9E
:101220002C4E2C6944F480142C61B468009401970E
:1012300000E000BFB568009C0095641B019D24F090
:101240007F442C44A3420194F3D80024224D214E24
:101250002873B06800900194A868C40704D50EE014
:1012600000BFA868C0070AD4B46800980094001BA7
:10127000019C20F07F40204482420190F0D8B3B11D
:101280000022144CA0680090019200E000BFA0680A
:10129000009A0090121A019822F07F420244934271
:1012A0000192F3D80D4A136943F0100313610A4BFE
:1012B0009A68D20705D500201B7B0B7004B0F0BCE8
:1012C0007047032004B0F0BC7047042004B0F0BCA9
:1012D000704700BF10E000E000300140000801400E
:1012E000094B9A68920748BF1873074B98689A6829
:1012F00010F0400F14BF05200020D2074ABF1B7B0F
:1013000001200B70704700BF003001402DE9F04F05
:10131000002589B0DDF854809A46DDE912B4CDE9A4
:1013200001019DF850900392C8F80050002A45D062
:101330002846274F274D07E0D8F80000039B0130CF
:101340009842C8F8000039D20299019E01445B46D8
:101350005246305CFFF742FF002833D1002CEBD01F
:10136000AB6804930590AA68049B04929B1A059AA3
:1013700023F07F4313449C420593DDD9164E0AE0C7
:10138000AA68049B04929B1A059A23F07F43134496
:101390009C420593D0D900213046FFF755F800282C
:1013A000EED0D7F8803003F03F033B4493F8403051
:1013B0004B45E5D1022009B0BDE8F08F002009B00F
:1013C000BDE8F08F20EAE07009B0BDE8F08F00BF03
:1013D0008001002010E000E0C00100202DE9F04F66
:1013E00000241D464FF0000A4FF0000B8BB0179BF6
:1013F000149E1C609DF85830AE190694CDE9020188
:1014000007940193CDE908AB04D1344620460BB0D4
:10141000BDE8F08F2B462146254690461C46DFF856
:10142000C8900596DFF8C4A02E4F179E09F1400B17
:101430008C4251D9029B5B5C0493DAF80830069326
:1014400000230793BB6841449B0744BF049B3B7345
:10145000BB6813F0400339D0BB68D80710D505230B
:10146000387B08709D423168B8BF1D46059B01312D
:1014700099423160DCD32C4620460BB0BDE8F08F9A
:10148000DAF80820069B06929B1A079A23F07F43FE
:101490001344159A07939A420ED900215846FEF735
:1014A000D3FF88B1D9F88030019A03F03F034B4451
:1014B00093F84030934207D1012D2C46B8BF012448
:1014C00020460BB0BDE8F08F3168BBE7BA68D207A1
:1014D000D6D5387B0870C5E7039A0B1BD35C049301
:1014E000ABE700BF003001408001002010E000E0C9
:1014F00040F20112002310B41149124C0A60A26894
:1015000085B0009201934B69DA070FD403E000BF66
:101510004B69DB070AD4A268009B00929B1A019AD0
:1015200023F07F43134498420193F0D8044B5B6946
:1015300013F0010F0CBF0B20002005B010BC70474A
:101540000058004010E000E0F0B50024DFF8DCE0D7
:10155000DFF8D4C042EA4101CEF81010DCF80810E0
:1015600087B00646029175466746204603940EE012
:10157000BC6802990294091B039C21F07F4121441D
:101580008E42039106D9696911F4E06F18D1696937
:101590008907EDD524498C6802990294091B039CA4
:1015A00021F07F4121448E4298BF0C20012A0391F3
:1015B0000CD01E4B5A6901929B69019307B0F0BD94
:1015C0006969062021F4E0616961E0E7012B0CD034
:1015D000022B16D073B1154B1A6842F480621A6060
:1015E0005A6901929B690193E8E7104B5A6901928D
:1015F0009B6901930D4A136843F40073136007B0AD
:10160000F0BD0A4B1A6842F480621A601A6842F40C
:1016100000621A605A6901929A6901921A6822F46A
:1016200080621A60CAE700BF10E000E00058004086
:101630002DE9F04F00244FF0000A4FF0000B89B065
:101640000494DDF850900594159ECDE906ABA34DAA
:1016500089F800403470AF68DFF884C204970594BD
:10166000DCF818E004461EF0020F8A4617469DF883
:1016700048B09DF84C80019305D10FE000BFDCF825
:1016800018309A070AD5AA68049B04929B1A059AF7
:1016900023F07F4313449C420593EFD8904DAB69F0
:1016A000990700F1E980BBF1000F2FD10020B8F1BC
:1016B000000F40F09B808A4A136843F40073136064
:1016C00000238649864D8A68049205932B689E05FF
:1016D00004D40EE000BF2B689B050AD58A68049BE2
:1016E00004929B1A059A23F07F4313449C4205936E
:1016F000F0D87B4B1B689A0502D5002808BF102044
:101700000122774B1A6009B0BDE8F08F2046FFF741
:10171000EFFE0028CFD10346024601992046FFF78D
:1017200013FF0028C7D199F800305B45BED240F2C4
:10173000844C6A4A93680493002305936B6913EA07
:101740000C0F05D00FE000BF6B6913EA0C0F0AD134
:101750009168049B04915B1A059923F07F430B4425
:101760009C420593EFD86B695B0500F1ED806B69D6
:1017700013F0840F00F0EE8099F80030696903F1EE
:10178000010E89F800E01AF803302B6199F8003057
:101790005B45CFD3490789D40022504D504BD5F833
:1017A00008C0CDF810C005925A69520711D49C4662
:1017B00004E000BFDCF814305A070AD4AA68049B7E
:1017C00004929B1A059A23F07F4313449C4205938D
:1017D000EFD8434B5A69510740F1BE801B69DBB219
:1017E0008DF80F30B8F1000F3FF465AF2046FFF7DA
:1017F0007FFE00287FF45FAF434601222046019917
:10180000FFF7A2FE00287FF456AF337898457FF6A5
:1018100057AF054681463149314AA8EB0303022BF5
:1018200070D02BDC012B52D88B680493059553693B
:101830005B0604D50EE000BF536958060AD48868D9
:10184000049B04901B1A059823F07F4303449C4299
:101850000593F0D85369580640F180803378D2F868
:1018600010C003F1010E86F800E007F803C03378DA
:101870004345D2D3484623E704201CE7032B26D157
:101880008B68049305955369580704D50EE000BF93
:10189000536958070AD48868049B04901B1A05985A
:1018A00023F07F4303449C420593F0D853695B07C0
:1018B00052D53378D2F810C003F1010E86F800E05B
:1018C00007F803C0136823F480631360CFE78B68C5
:1018D0000493059553695B0608D5BBE710E000E06B
:1018E0000058004000BF53695B06B3D48868049B6E
:1018F00004901B1A059823F07F4303449C420593F0
:10190000F0D8A7E78B680493059553695B0704D566
:101910000EE000BF53695B070AD48868049B0490FB
:101920001B1A059823F07F4303449C420593F0D88B
:101930005369580710D5136823F480631360136844
:1019400043F40073136089E76B690D2023F480630F
:101950006B6121E70320AEE60E20ACE60F20AAE67D
:10196000F0B4094C9DF8105064699DF81460A40708
:101970009DF8187005D5CDE905670495F0BCFEF714
:10198000D1BB0120F0BC7047005800402DE9F84F52
:1019900082460F462C48002116469B469DF828801B
:1019A000FEF752FD18B981464846BDE8F88F31462A
:1019B0002548FEF749FD002E43D00023234D0AF1B0
:1019C000FF32D5F880401C4404F03F042C4494F8C6
:1019D000401001339E4202F8011FF2D11AF80B4069
:1019E000194806EB04094946FEF72EFDACB1B8F1E3
:1019F000000F12D00022013F01E042450DD0D5F882
:101A000080303344134403F03F032B4493F84030B9
:101A10000132944207F8013FEFD1D5F8842009F153
:101A2000030323F00303934228BF1346D5F8801025
:101A3000D21A0B4403F03F034846C5E92032BDE803
:101A4000F88F024DCAE700BFC001002080010020CE
:101A5000F0B5002148F69F4E4FF0010C4FF4667729
:101A600070264FF4E67504244FF40040114A536881
:101A700023F4700343F4200353600F4B9A6942F43C
:101A800000629A619A69DA6842F40062DA60DA68A0
:101A900022F40062DA60A3F564431961A3F828E038
:101AA000C3F814C019619F859E619D861C625864AD
:101AB000F0BD00BF000C01400010024038B5194CC9
:101AC000D4F88430012B07D804F14000FEF768FCFD
:101AD000D4F88430012BF9D9D4F880201248511C55
:101AE00001F03F01214491F84010A1B1416821F07B
:101AF0007F4141F0CC414160042B194628BF0421AD
:101B00004FF0404508480A4402F03F025B1AC4E91E
:101B10002023056138BD416821F07F4141F0084133
:101B20004160E9E780010020000C014070B5174CCE
:101B3000D4F88430022B07D804F14000FEF730FCC3
:101B4000D4F88430022BF9D9D4F88020104D901CA1
:101B5000511C00F03F0001F03F012044214490F867
:101B6000406091F84010286841EA061131EA00000F
:101B700018BF2960042B194628BF04210A4402F02B
:101B80003F025B1AC4E9202370BD00BF8001002022
:101B9000002002402DE9F04FD94C83B0D4F88420C6
:101BA0000B2A07D804F14000FEF7FAFBD4F8842092
:101BB0000B2AF9D9D4F880100C3A8B1C03F03F03A0
:101BC000234493F840604B08072E8CBF4FF0010E62
:101BD0004FF0020E03F1050C0CF01F0503F1030991
:101BE000081D01F1050C4F1C09F01F0900F03F0012
:101BF0000CF03F0C04EB490903F1040A204401F105
:101C0000030807F03F07A444B9F840300C3190F8BE
:101C100040900AF01F0A04EB450008F03F08E51960
:101C20009CF8407001F03F0B04EB4A0AA044C4F852
:101C30008420BAF84010B0F8402095F8405098F849
:101C4000400084F8A0E0A4F89830C4F89C90019774
:101C5000C4F880B0002B00F0D381DFF8B0C205F0EB
:101C60000F07DCF81CC047EA06171CF0010F84F8C8
:101C7000A47025D06F1E022F00F265824FF08048BD
:101C80004FF00009DFF898C2DCF8007027F47F47B6
:101C900027F0F00747F4084747F08007CCF80070BA
:101CA000DCF8107047F46027CCF810700CF5843C19
:101CB000C8F80090DCF81C7027F00107CCF81C7005
:101CC0004FF00308DFF85CA28E4FDFF854B2AAEBA6
:101CD0000707B3EBA70F4FEAA70C84BFA4F898C07F
:101CE0001FFA8CF34FEA850C0CF1020908FA09F986
:101CF00008FA0CFC49EA0C0CDBF80090824FAAEBC6
:101D0000830329EA0C0CBEF1020FC7E9333ACBF882
:101D100000C000F0CD817D4BBEF1020FD3F804C0AE
:101D20002CF4404C4CF4004CC3F804C0D3F818C059
:101D30004CF4007CC3F818C0D3F818C0D3F80CC01A
:101D40004CF4007CC3F80CC0D3F80CC02CF4007C1D
:101D5000C3F80CC000F00682DFF8B481DFF8C8C118
:101D6000D8F808304FF0000943F00103C8F80830F4
:101D7000DCF80830E6469446C4F88830C4F88C9005
:101D8000DEF80820D4F88830C4F888209B1AD4F8EC
:101D90008C2023F07F431344232BC4F88C30EFD9DD
:101DA0005B4B6246D3F808C04CF0090CC3F808C07E
:101DB000D3F808C01CF0080F05D09C4600BFDCF823
:101DC00008301B07FAD4524BD3F808C04CF0050C6E
:101DD000C3F808C0D3F808C01CF0040F05D09C4617
:101DE00000BFDCF808305B07FAD494F8A0C0BCF15F
:101DF000020F00F00D81BCF1010F00F004814FF0E3
:101E000000084FF48079DFF824E1DFF824A1D4F84A
:101E10009C30CEF808A0CEF80490CEF82C8006EBCB
:101E20004608CEF8346003FA08F83A4ECEF810802F
:101E30004FF0000EDFF8D89005EB450803FA08F3E1
:101E4000DFF8C880C9F82CE0C9F83450C9F8103060
:101E5000D8F81430304D43F00103C8F81430D7F8E7
:101E6000CC3009F14C09BCF1010FC5F800E0C5F810
:101E70000890EB6000F0618140F6812CB4F8985036
:101E8000254B5D60C3F800C0019B002B00F0218151
:101E90004FF48043214D2B61AB685B0403D400BF3A
:101EA000AB685B04FBD50F254FF4A0630128C7F88E
:101EB000D850A4F8A83000F08881022842D101252A
:101EC0001348DFF858C0856003689B0703D400BF40
:101ED00003689B07FBD5B0F84C309BB29A4203D302
:101EE000DCF808305B04EED40120094A0B4D906009
:101EF00013689B071ED400BF13689B07FBD519E02E
:101F00008001002098040020000000200010024002
:101F1000002401400001060008000240000C0140BE
:101F2000000801400050002010E000E000280140BF
:101F300003001E00B2F84C309BB2994202D2AB684B
:101F40005B04D4D40122B54B5A60B54B9A68520455
:101F500000F1FE80B4F8A83043F40073A4F8A83070
:101F60004FF40043AE4A136193681D0403D400BFCD
:101F700093681804FBD5B4F8A83023F4807343F4B5
:101F8000E0539BB2A749A848A44A4E6088601168F4
:101F9000A4F8A830890703D400BF13689B07FBD5BA
:101FA000FEF7A0FE01204FF040459D4AD7F8D4101F
:101FB000536884F8AA0023F4700343F48003536049
:101FC00094F8A030156194F8A4606370D4F89C5024
:101FD000B4F89820B4F8A830A670E5702070934E3D
:101FE000934D8A80CB8000E030BF08233246012128
:101FF000284602F06DF90028F6D00023A4F8A83096
:1020000003B0BDE8F08F4FF48076D4F89C300FE732
:10201000DFF82082DFF820C2D8F808304FF000093E
:1020200043F00103C8F80830DCF80830E64694466F
:10203000C4F88830C4F88C90DEF80820D4F88830D2
:10204000C4F888209B1AD4F88C2023F07F431344D3
:10205000232BC4F88C30EFD9764B6246D3F808C0F6
:102060004CF0090CC3F808C0D3F808C01CF0080FE6
:1020700005D09C4600BFDCF808301B07FAD46D4B36
:10208000D3F808C04CF0050CC3F808C0D3F808C05A
:102090001CF0040F05D09C4600BFDCF808305B073D
:1020A000FAD494F8A0C0BCF1010F7FF4A8AEAAE75F
:1020B0004FEA860909F1020CDBF8003008FA0CFC43
:1020C00008FA09F84CEA080823EA0803CBF80030BC
:1020D00021E60F254FF4A0630128C7F8D850A4F8D3
:1020E000A83054D0022837D101254E4885600368B6
:1020F0009B0703D400BF03689B07FBD5B0F84C30A7
:102100009BB29A42F2D20120464A906013689B0724
:1021100003D400BF13689D07FBD5B2F84C309BB2C7
:102120009942F2D30121B4F8A8303C4A23F48073D9
:1021300043F4E0539BB2516024E7B4F8985040F266
:10214000815C6D009CE6771E022F3FF6B9AD95E5E8
:102150004FF080421A6103E70121304A4FF4E05307
:1021600051600FE7D3F818C04CF4806CC3F818C066
:10217000D3F818C0D3F80CC04CF4806CC3F80CC072
:10218000D3F80CC02CF4806CC3F80CC0E4E5254DEA
:10219000A8602B689B0703D400BF2B689B07FBD567
:1021A000B5F84C309BB29942F2D901201D498860A4
:1021B0000B689B0703D400BF0B689D07FBD5B1F8E4
:1021C0004C309BB29A42F2D8ACE7164DDFF850C0C3
:1021D000A8602B689B0703D400BF2B689B07FBD527
:1021E000B5F84C309BB2994203D8DCF808305B0458
:1021F000EED401200B490A4D88600B689B0703D47D
:1022000000BF0B689B07FBD5B1F84C309BB29A42DC
:102210007FF698AEAB685B04EED493E60000024014
:10222000000C01400024014003015E0080010020F9
:10223000000000200028014010E000E02DE9F04FF0
:10224000514C83B0D4F884300B2B07D804F14000F4
:10225000FEF7A6F8D4F884300B2BF9D9D4F88020F7
:102260004A4D511C500801F03F01214400F104087F
:10227000033091F840C000F01F0104EB4101E86910
:10228000951CB1F840100C3B05F03F0502F1040E1F
:10229000D61C02F105092544C4F8843002F10C0370
:1022A00009F03F0903F03F03394F08F01F080EF013
:1022B0003F0E06F03F06019195F8401004EB09022D
:1022C00004EB4808A6442644C4F880304302B8F81A
:1022D00040809EF840A096F8409092F840B0C7F831
:1022E000D8C0009101D5FDF701FF009BB8F1030FA5
:1022F00038BF4FF00308FBB10025D4F884302548DF
:1023000003E0FEF74DF8D4F88430032BF9D9D4F864
:102310008020D7F8DC6002F03C0CA444DCF84010CC
:10232000043202F03F02043B46F82510C4E92023A2
:10233000009A01359542E8D1FFF78AFB4FF480738C
:10234000A4F8A830BAF1000F19D14FF40052124B83
:102350001A61B9F1000F0BD04FF480424146584644
:10236000A3F580631A6103B0BDE8F04F02F056BCDC
:102370004146584603B0BDE8F04F02F0BFBC012112
:102380000198FEF7ADF8E0E7800100200010024060
:1023900000000020C001002000100140F8B5214ECF
:1023A0000025214CD6F8841006F1400003E0FDF72B
:1023B000F7FFD6F884101029F9D900221346D6F871
:1023C00080C0634403F03F033344675D93F84030BB
:1023D00001329F42D2B214BF002501358A42134612
:1023E000EFD3CA1C22F003028A4228BF0A46944453
:1023F0000CF03F03891A102DC6E92031DBD90B4BB5
:102400000B4A1D46D3F8E030064C1A6000E030BF9E
:10241000042322460121284601F05AFF0028F6D065
:10242000F8BD00BF80010020AC4F00080000002074
:10243000F57A01EA2DE9F8435D4DD5F88430052B96
:1024400007D805F14000FDF7ABFFD5F88430052B28
:10245000F9D9082B184628BF0820D5F88010554F09
:102460004A08541C01441B1A0232D7F8D80004F061
:102470001F0402F01F0205EB440405EB420201F0C9
:102480003F010F28C5E92013B4F84040B2F840607E
:1024900005D195F8A4307F2B84BF64087608D7E96E
:1024A00033C30CEB84049C4228BF1C4604EB860615
:1024B0009E4228BF1E46D7F8D420A4EB0C018910F9
:1024C0001180A3EB0C033C49DFF8F0C09B10A1EB9B
:1024D0000C01A6EB040C4FEAAC0C89109380A2F817
:1024E00002C0D18095F8A0E0B5F898C095F8A41086
:1024F000D5F89C30287285F809E0A972EB72DFF8F4
:10250000B090DFF8B080A2F80CC000E030BF0E231E
:102510004A460121404601F0DBFE0028F6D0A642E3
:1025200037D90023DFF88890DFF8888004E0A642DE
:102530001ED0A6422B4617D954F8042BD7F8E0102A
:102540000F2B03F1010541F82320F0D100E030BF4B
:1025500040234A460121404601F0BAFE0028F6D049
:10256000A6424FF00003E7D81D4695B1BDE8F883B9
:10257000AC000F4F0F4E04F0FC0400E030BF2346C8
:102580003A460121304601F0A3FE0028F6D0002D86
:10259000ECD1074D074C00E030BF00232A46012153
:1025A000204601F095FE0028F6D0BDE8F88300BF74
:1025B000800100200000002000500020980400202E
:1025C0002DE9F04F4FF0000AD24CC3B0D4F884305C
:1025D000CDE912AA172BCDF828A0CDF884A0CDF80C
:1025E00040A0CDF8ACA0CDF850A007D804F1400031
:1025F000FDF7D6FED4F88430172BF9D94FF0030835
:10260000D4F88020183B91088E1C0D1D01EB080E9C
:1026100006F00F06053104EB860601F00F01366C5B
:1026200002F1050C05F00F0504EB8101096C04EBC8
:1026300085050CF03F0C2D6C0896A444561C901C8C
:1026400006F03F060F919CF8401000F03F000E95F9
:10265000264402EB0805204405F03F050B9196F84F
:10266000401090F840B02544101D0EF00F0E00F001
:102670003F00159195F8401004EB8E0E2044DEF8D3
:1026800040701832279190F8401002F03F02C4F8D1
:10269000843009970691C4F880208DF8ED80BBF155
:1026A000000F00F02185172B08D89B48FDF778FE16
:1026B000D4F88430172BF9D9D4F88020D31D03F037
:1026C0003F032344561C93F840A006F03F069308AE
:1026D000264496F84060951DD81C904F0AF10302DD
:1026E00022F0030200F00F00191D04EB80000533F7
:1026F00002EB0708C6F30012139205F03F05026CC7
:1027000001F00F0103F00F0304EB8101254404EBFA
:1027100083031B6C95F8405034920A6C35933892C1
:102720008DF8EC50FEF718F9D4F88420D4F8801016
:10273000182A134628BF1823D21A0B4403F03F036C
:10274000C4E920322A90279B002B00F08580D4F822
:102750008430172B06D87048FDF722FED4F8843059
:10276000172BF9D9D4F880206B489308911DDF1CF2
:10277000013202F03F0207F00F071E1D224404EB56
:10278000870792F8409006F00F063A6C5D1D01F045
:102790003F01023304EB860636922144326C05F089
:1027A0000F0503F00F0391F8401004EB850504EBCF
:1027B00083031B6C37922A6C0A9118313393399238
:1027C000FDF742FE0A99CD1C25F0030508EB050331
:1027D000229308EB450591B14246D4F880300A991E
:1027E000183301EB0800A3EB08018B1803F03F033B
:1027F000234493F8403002F8013B9042F5D1FDF7B5
:1028000049FF0A9BD4F884201B3323F0030393422F
:1028100028BF1346D4F88010D21A0B4403F03F03AC
:10282000C4E92032B9F1000F40F06C843C4B9A6847
:10283000910744BF98F800201A73394A9368936847
:1028400013F0010300F06B84137B229ACDF8BC8057
:1028500013700023A8461293069B002B00F04184BE
:10286000D4F884300F2B06D82B48FDF799FDD4F807
:1028700084300F2BF9D9D4F880302748991D01F006
:102880003F01214491F84070D91C01F03F063946C0
:102890005D1C9A0805F03F050332254402F00F0243
:1028A00095F84050073304EB8202126C03F03F03AB
:1028B0002344C5F3C005264414952E9293F8405046
:1028C00096F8402010312B9210952197FDF7BCFD12
:1028D0000022FB1C23F003030335434425F00305CA
:1028E00023931D4488F80020E7B14246D4F8803095
:1028F0002199103301EB0800A3EB08018B1803F0BA
:102900003F03234493F8403002F8013B9042F5D155
:1029100008E000BF80010020C001002098040020D2
:1029200000300140FDF78CFF219BD4F88420133345
:1029300023F00303934228BF1346D4F88010D21A21
:102940000B4403F03F03C4F880303F23CDF8C08030
:10295000A846C4F884201D930B9A002A00F0B88082
:10296000574B02F00F0003EB121103440D7D1B7D4A
:102970004FF000091D44EDB26B00E91C08EB850027
:1029800021F003010D93033300EB410623F0030311
:10299000199006EB430C2696199E4F467118189114
:1029A0006146269E1944F3181793AB004E461195C5
:1029B0000C9544484D46CDF8A4C091460791169316
:1029C00002E00135082D29D049FA05F3DA07F8D5D8
:1029D000D4F88430711E0229199A98BF0127032B5D
:1029E000955505D8FDF7DCFCD4F88430032BF9D9D4
:1029F000D4F88010013501F03C0CA444DCF84020F0
:102A00000431043B01F03F01082D48F82620C4F8AA
:102A10008430C4F8801006F10106D5D10C9DC7B1F1
:102A20004FF080410020284A136823F47F4323F0AD
:102A3000F00343F4084343F080031360136943F445
:102A40006023136102F584320860D36923F0010327
:102A5000D361002D00F0698342464FF6FF76169B46
:102A600043441F46079B581E299B991E12F8043B9E
:102A7000C3F30313BA4200F8013F21F8026FF5D106
:102A80002846079B199A0B99FEF77CF80D9A0F4B75
:102A900010469968179D41F4800199601A462946AD
:102AA000284400E000BF13689B07FBD5B2F84C3008
:102AB00021F8023B8842F6D1CDF8A0800AE000BFA1
:102AC000AC4F0008C0010020000801400024014074
:102AD0000B9B11930023002000213E933F93CDE9EF
:102AE0004001A64A8DF8EF3095683C93C4F88850B1
:102AF000C4E924019168D4F88850C4F888106D1A8C
:102B000025F07F45D4E92401401941F10001DDE9B8
:102B10000856B14208BFA842C4E924013D9380F0A1
:102B200019819168D4F88850119F6D1AC4F88810E3
:102B300025F07F45D4E924014019269D41F100018B
:102B4000FA1C002F1E464FEA8202169308BF0C2281
:102B500005EB4703023B2C93289BD2B203EB870380
:102B60002D937B1E1C934FF48073854D1B92109AFE
:102B70003D3DC4E92401AA180A9931926A1E0A440B
:102B80007F480021CDF868A03292DA461E96DDF823
:102B90009CB00C96209607961F960D93FDF754FC5B
:102BA0000546002840F0D580BAF1000F05D0139BF0
:102BB0001BB93C9B002B00F0EF81BBF1000F05D04F
:102BC000129B1BB93D9B002B00F07C82069BF3B14E
:102BD0001498E0B99DF8EF30CBB96A4B5B699F0759
:102BE00040F19782109F0DF1EE010297219F0DF1A8
:102BF000EF020DF1ED03CDE90421CDE90007014617
:102C00000393309A239B2E98FDF78CFA1E903EB1C9
:102C1000DDE93C23134303D19DF8EF30002B55D061
:102C2000159B53B1584B1D9A9B6802EA13130D9ADA
:102C30000C939B1A18BF01230793BBF1000F03D01D
:102C4000129B002B40F09881BAF1000F03D0139B28
:102C5000002B40F02782069B1BB1149B002B40F0F9
:102C60000F820B9B002B40F0AB80BAF1000F00F0FD
:102C7000FC803C9B003B18BF0123BBF1000F00F020
:102C8000F9803D9A0699003A18BF0122002900F008
:102C9000F6809DF8EF100798003918BF0121002831
:102CA00040F0F2801698002840F0EE80002B40F0B3
:102CB000EB80002A40F0E880002940F0E580002207
:102CC00000232E4989683E91CDE94023DDE908566D
:102CD0002A4A9168D4F88830C4F888105B1A23F027
:102CE0007F43D4E92401C01841F10001B14208BF7B
:102CF000A842C4E924012CD29168D4F88830C4F8E1
:102D000088105B1A23F07F43D4E92401C01841F1F5
:102D10000001C4E9240192683E9B3E929B1A23F075
:102D20007F43DDE94001C01841F10001DDE90E23D8
:102D3000994208BF9042CDE940014FF00001104890
:102D400034BF01260026FDF77FFB054600283FF42F
:102D50002BAFD3460B9B002B40F0CA81BBF1000F79
:102D600040F0CC81279B03B30020084A084C13682D
:102D700008499BB243F088430EE000BF10E000E03A
:102D8000C001002000580040000C01400008014034
:102D9000003001400010024043F488031360D0600B
:102DA00020608B6923F480538B61069B2BB1AD4B64
:102DB000DB695B0201D5FDF799F943B0BDE8F08FFF
:102DC000A94A936843F480039360119B002B00F0A1
:102DD000A381269B2C98A3F1020E714600E000BF50
:102DE00013689E07FBD5B2F84C3021F8023F8842A9
:102DF000F6D10023CDE924A51D461799289A881EEF
:102E00002999DDF8B4A0A1F1020C1899A1F10408E8
:102E10000123D7783EF8021F967807FB01F130F8BE
:102E2000029FB340DB1B09FB031323FA06F6B3B280
:102E3000577803803CF8021F04325E1A86EAE67176
:102E4000A1EBE671B94288BFACF800304FF0000347
:102E500088BF0125924548F8043FD9D11695DDE990
:102E600024A5BAF1000F7FF404AF5346BBF1000F65
:102E70007FF407AF06995A4600297FF40AAF0798F6
:102E8000069900283FF40EAF784B79489B68D4F838
:102E90008810C4F88830C91A21F07F41D4E924236E
:102EA000D0F8E0E0521843F10003C4E92423CEE94E
:102EB00000230C9BCEF808309BB20D93119BF3B10D
:102EC000189B1C991E1F179B981E199B03EB010949
:102ED0005A1EC3F1040856F8043F30F802CF1B0411
:102EE00008EB020103F47F0312F8017F43EA0C03AD
:102EF000C9B243EA076391454EF82130EBD11B98E4
:102F0000FDF7CAFABAF1000F52D1BBF1000F7DD123
:102F1000069B002B3FF4D3AE1E999DF8ED20217047
:102F20009DF8EF3010996270A17083B1002900F014
:102F30000F81239A4F49109E013A01E0B54212D009
:102F400012F8010F01359D4201F8010FF6D1109AD8
:102F5000934280F00581002203333199234403F822
:102F6000012B8B42FBD1109BD81CC0B2FDF794FA09
:102F700000238DF8EF30A2E6052237993DAB019191
:102F80003399CDE902230091369B0A9A22992F9812
:102F9000FEF7BCF91F9057E605223CABCDE90023B4
:102FA0003549389B1A9A2A98FEF7AEF8209004E625
:102FB0001A9A20993C9B2270617083B1002A00F01C
:102FC000C58000222C482D491A9F01E0BA4213D037
:102FD00010F8016B01329A4201F8016FF6D11A9A8A
:102FE000934280F0BA8000212248023323448218A1
:102FF00003F8011B9A42FBD11A9B981CC0B2FDF743
:103000004BFA00233C93BBF1000F81D00A9A1F9921
:103010003D9B227061708BB1002A00F0958022994F
:10302000002216480A9F013901E0BA4212D011F875
:10303000016F01329A4200F8016FF6D10A9A934269
:1030400080F08880002202333299234403F8012B58
:103050009942FBD10A9B981CC0B2FDF71DFA0023D0
:103060003D9355E7001002400024014010E000E0CD
:10307000000000208201002098040020810100202F
:1030800010990DF1EF02019121990DF1EE03CDE9B7
:10309000023200912B9B239A30992E98FEF7C8FAA2
:1030A0001E90DEE5052235993CAB01913499CDE9BE
:1030B0000223009101232C4A2A983BA9FDF7BCFF6B
:1030C0002090C8E5052239993DAB01911299CDE9CF
:1030D00002232F980A9B229A0091FEF77FF91F90F6
:1030E00074E5FF231D9337E4DFF87C80FFF72BBBEB
:1030F000FDF7F8FDBBF1000F3FF434AE2A98FDF761
:1031000011FD2FE60123CDF8BC801293A846FFF7EE
:10311000A3BB01231E937AE5119B1693A5E5CDF879
:10312000BC801293A846FFF797BB079B199A2846C5
:103130000B99FDF727FD0D4ACDF8A08093681195F6
:1031400043F480039360C5E4022086E7022056E73B
:1031500003200BE70233D8B27FE70233D8B24EE741
:103160000333D8B202E700BF9804002000240140D6
:10317000F8B5834CD4F88430172B07D804F14000FD
:10318000FDF70EF9D4F88430172BF9D9D4F8802044
:10319000511C01F03F01214491F84000002800F04B
:1031A000CB804FF080404FF0000C764D5108EE6917
:1031B00046F00106EE61EE692E6946F001062E61C9
:1031C0002F698E1D27F0010706F01F062F6104EB03
:1031D0004605B5F84060CD1D05F01F05068504EBDA
:1031E0004505C0F810C0B5F8406001F1080505F0CC
:1031F0001F05868504EB4505B5F8406001F109051A
:1032000005F01F05068704EB4505B5F840500A3167
:1032100001F01F01858704EB4101B1F84070D61C15
:1032200006F03F06951C111DA0F84070264405F0DD
:103230003F0501F03F0196F840602544214495F890
:10324000407091F8401006F0070601F007013601C2
:1032500007F0070746EA01363F03876102F10805D8
:10326000C66102F1090102F10A07561D05F03F058A
:1032700001F03F0107F03F0706F03F0627442644D0
:103280002544601897F840C095F8405090F84000E9
:1032900096F840702D0106024FEA0C3C002F48D0F2
:1032A000012F2FD04025901D00F03F00204490F8C2
:1032B000401089B3012960D146F44066D01D00F06A
:1032C0003F00204490F8401081B3012952D14CF4C2
:1032D000404C4FF0804141F2101701200F622A4FFD
:1032E00008603968183221F47F4121F0F001294348
:1032F000314302F03F02183B41EA0C01C4E92023AC
:103300003960F8BD901D00F03F00204490F8401057
:1033100045F0C0050029CDD1D01D00F03F0020446C
:1033200090F8401046F400660029CED14CF4004CD1
:10333000CFE745F08005B6E74FF08047124D114EBC
:103340002968183221F47F4121F0F00141F408414D
:1033500041F080012960296902F03F0241F46021B7
:1033600029613860F169183B21F00101C4E920238B
:10337000F161F8BD4FF4804CABE74FF480669DE7F8
:103380008001002000100240000801402DE9F04FAC
:10339000784E95B0D6F88430172B07D806F1400048
:1033A000FCF7FEFFD6F88430172BF9D9D6F8803019
:1033B0007148063303F03F03334493F840A00025DF
:1033C0000AF11801FDF740F8FDF764F9D6F88040DE
:1033D000002204F1020B0BF03F0B4FEA940CB344B4
:1033E0000CF104099BF840B009F00F090CF1020838
:1033F00006EB89090BF0200308F00F080593D9F8B4
:1034000040300CF1030E06EB88080EF00F0E099306
:10341000D8F840300CF1050C06EB8E0E0CF00F0CBA
:103420000893DEF8403006EB8C0C0793DCF8403054
:10343000601C0693002351490AF1030700F03F0086
:1034400027F0030730440C9590F840900D950F44F9
:10345000CDE90E2310951195CDE91223BAF1000F95
:103460000ED00A4604F118005144801A831803F064
:103470003F03334493F8403002F8013B8A42F5D1D0
:10348000D6F884200AF11B0323F00303934228BFDC
:1034900013461C4404F03F04D31AC6E920433D46BA
:1034A0003C464FF03E08DFF8E4B0002301222146FD
:1034B000CDF800800DF12B00FEF768FA20B19DF8E1
:1034C0002B30002B43D01C4400230B93B9F1000F89
:1034D00021D105210698631B0BAACDE90323CDE971
:1034E00000A05A46029128462449FDF777FF01289B
:1034F00002460B99049B08D011B1059BEBB10D441A
:10350000AC42D2D83C463D46CFE753448B428CBFB9
:1035100000220122F0E7A542F4D00293099B0BAAF6
:103520000193089B5946009303922846621B079B10
:10353000FDF7ECFE0B990246DEE7C9B2881CC0B26B
:1035400031707270FCF7A8FF0B9B1D44D8E70C4943
:103550000C4C0A680C4892B242F0884242F488024D
:103560000A60CB602360836923F48053836115B0C4
:10357000BDE8F08F80010020C001002098040020E9
:10358000000801400030014000100240820100208C
:103590002DE9F04F694E8BB0D6F884300F2B07D849
:1035A00006F14000FCF7FCFED6F884300F2BF9D969
:1035B000D6F880306248063303F03F03334493F873
:1035C000404004F110010794FCF73EFFFDF738F985
:1035D0000323D6F880108DF82130481C00F03F00FE
:1035E0008B08304490F840000333CA1C03F00F03EB
:1035F00002F03F0206EB8303324400F00800D3F8E8
:1036000040B092F840900690002C00F094804D4C11
:10361000079B224601F110001C44801A831803F016
:103620003F03334493F8403002F8013BA242F5D106
:10363000079B133323F003030024D6F88420424D64
:10364000934228BF1346A0462F46194401F03F017C
:10365000D31AC6E92013DFF8FCA03E220223009211
:103660002946032209A8FEF791F988B19DF8254063
:103670009DF826309DF8249054EA030252D03C2C49
:1036800028BF3C243C2B984628BF4FF03C081D44E3
:10369000069B1BB358EA0403DFD0CDE90084002465
:1036A000294D3946A0462F460DF123020DF1220384
:1036B000CDE90232584652464B46FDF7B9FF9DF818
:1036C00022209DF823303070B270181D9DF8212003
:1036D000C0B2F3707270FCF7DFFEBEE71B4B5B6994
:1036E0009A07BAD5EB1B5FFA83FC079B0DF122000A
:1036F0000DF123010DF12102CDE90410CDE900C344
:1037000003925346394658460E4A0294FCF70AFD86
:103710000128A2D09DF822201744BD429CBF0A4D2B
:103720002F46CEE70A4BDB695B0201D5FCF7DEFCD6
:103730000BB0BDE8F08F10237EE700BF80010020B2
:10374000C001002098040020A80400200058004078
:1037500000100240840100202DE9F04F654F97B022
:10376000D7F88430172B07D807F14000FCF718FE74
:10377000D7F88430172BF9D9FDF7EEF8D7F8843055
:10378000D7F88020182B1C4628BF182402F1010806
:10379000A3EB040C08F03F089308B84403F1050EAE
:1037A000DE1C043398F840B003F00F0307EB8303EB
:1037B00006930EF00F0E0BF0100307EB8E0E059321
:1037C0000BF0300306F00F060793DEF8403007EBEE
:1037D00086060993336CD11D0893069B22441B6C0B
:1037E00002F03F028246C7E9202C00200022069307
:1037F0000023414C01F03F0126460E9039440F90C2
:10380000CDE9102312901390CDE914230BF0400959
:103810000BF0200891F840B03E2200230092214690
:1038200001220DF12F00FEF7B1F820B19DF82F30E5
:10383000002B59D01C4400230C93B9F1000F27D062
:10384000A6423DD2079A0D93302A3DD00193099BA1
:103850000DAA00930292089B31465046A21BFDF729
:1038600085FB05460D9B1E44B4429CBF224C264658
:10387000B8F1000F01D0059B6BB10C9B002BCBD096
:10388000DBB2981CC0B23B707D70FCF705FEC3E74D
:10389000B8F1000FC0D000220CABCDE90023504698
:1038A0005A46069B1549FDF72FFC022805461BD0FA
:1038B00001280C9BE2D19B458CBF00250125DDE74B
:1038C000B8F1000FD7D1A7E70293099B0CAA019387
:1038D000089B039200933146A31B5046074AFDF70D
:1038E000ABFB0C9B0546BEE75046FDF71BF917B036
:1038F000BDE8F08F800100209804002082010020A4
:103900002DE9F04F3D4D87B0D5F88430072B07D80F
:1039100005F14000FCF744FDD5F88430072BF9D9B8
:10392000D5F88030DFF8DCA09B08013303F00F03EB
:1039300005EB83031F6CFDF70BFAD5F88420B7F174
:10394000000B18BF4FF0010B082A134628BF0823AD
:10395000544600264FF03E080390D5F88000D21A56
:10396000034403F03F03C5E92032DFF89C900023B5
:1039700001225146CDF800800DF11700FEF706F840
:1039800018B19DF8173063B39A447EB1D9F8082076
:10399000D5F88830C5F888209B1AD5F88C2023F0FC
:1039A0007F4313449F42C5F88C30E0D2544516D073
:1039B00014F8013B039AA24503EA020308BFDFF8AB
:1039C00044A00F4A08BF5446D36037B10023D9F84A
:1039D0000820C5F88820C5F88C305E46C7E7002669
:1039E000C5E74FF066304FF04431054AD3601368A5
:1039F00010601368116007B0BDE8F08F80010020EF
:103A0000000801409804002010E000E02DE9F04F8C
:103A1000DFF884928BB0D9F88430132B07D809F1E2
:103A20004000FCF7BDFCD9F88430132BF9D94FF0D6
:103A300080414FF0000BDFF85CA2954ADAF80030C5
:103A400023F47F4323F0F00343F4084343F080035F
:103A5000CAF80030DAF8103043F46023CAF81030A6
:103A6000C1F800B0D36923F00103D361FDF770F909
:103A7000D9E9202C6446142C28BF1424930803F1A0
:103A8000020808F00F0809EB8808D81C04330093DB
:103A9000D8F84030571D961DD51D02F1040ED11CDB
:103AA00003932244009B07F03F0706F03F0605F012
:103AB0003F0502F03F02ACEB040C4F444E444D4432
:103AC000C9E9202C97F9407096F8406095F840506D
:103AD00000F00F0003F00F030EF03F0E01F03F0166
:103AE000039A09EB800009EB8303CE4449445F4508
:103AF000CCBF34462C46006C1B6C9EF8408091F87D
:103B000040100ABB4FF40053A9F8A830002940F038
:103B1000BB8040465F4984EA5402631C70B1DCB24A
:103B20003C44AC42CA600DDCB442A8BFE4B2F2DA55
:103B30002C4684EA5402631C0028F0D1CC603C443B
:103B4000AC42F1DD3446E6E700210022DFF850E127
:103B50000193DEF808304FF0020C069313460A4634
:103B6000CDE90823DEF80820069B00909B1A23F07D
:103B70007F400692DDE90823121843F10003DDE9D6
:103B800000018B4208BF8242CDE9082389F8AAC010
:103B900052D2CDF810A0F246CDF814B0B8F1000F13
:103BA00066D084EA54030134E4B2049A3C44AC4243
:103BB000D36062DCB442A8BFE4B200DA2C46DAF883
:103BC0000830DFF8E0B0C9F88830059BC9F88C30C0
:103BD0000AE0521843F1000300215846CDE90823BA
:103BE000FCF732FC00284AD1DAF80820D9F88830EE
:103BF000C9F888209B1AD9F88C2023F07F431344FE
:103C0000039AC9F88C309A42DAF80830069906937C
:103C1000A1EB030121F07F41DDE90823D9D8521837
:103C200043F10003DDE900018B4208BF8242CDE988
:103C30000823B3D399F8AAC000204FF066324FF0A2
:103C40004431144B144DD86018681A601A68134C2C
:103C5000196089F800C000E030BF01232A461946E8
:103C6000204600F035FB0028F6D00BB0BDE8F08F01
:103C7000049BDC603C44AC429CDD34469FE74FF043
:103C8000030C89F8AAC0D7E70121FCF729FC40E71B
:103C900000100240000801408001002000000020C8
:103CA00010E000E0C0010020134938B5D1F884408D
:103CB0001825042C224628BF04220B46D1F8800088
:103CC000A41A024402F03F000C4AC1E920040D701E
:103CD000481912F8021F03F8011F8342F9D1064D5B
:103CE000074C00E030BF19232A460121204600F08E
:103CF000EFFA0028F6D038BD80010020E80000204F
:103D0000000000202DE9F84F274C4FF40059D4F85B
:103D100084204FF0000B042A134628BF0423D4F854
:103D20008010D21A0B4403F03F03C4E92032DFF8BD
:103D300088A01E4D1E4F1F4E04F14008CAF8109077
:103D4000AB68C4F88830C4F88CB0AA68D4F888305E
:103D5000C4F888209B1AD4F88C2023F07F431344A6
:103D6000BB42C4F88C30F0D34FF00053CAF8103087
:103D7000AB68C4F88830C4F88CB0AA68D4F888302E
:103D8000C4F888209B1AD4F88C2023F07F43134476
:103D9000B342C4F88C30F0D900214046FCF754FB04
:103DA0000028CBD0BDE8F88F8001002010E000E0B3
:103DB000C0FC9B013F548900001001402DE9F04FE9
:103DC0009F4F89B03969B1F1204FC1F30366C1F348
:103DD000035034BF00222722092E8CBF4FF0270B3F
:103DE0004FF0000BC1F303450A28B8BF4FF0000E97
:103DF000C1F30330A8BF4FF0270E092D8CBF4FF041
:103E0000270A4FF0000AC1F303240A28B8BF4FF075
:103E1000000CC1F30310A8BF4FF0270C092C8CBF76
:103E20004FF027094FF000090A2801F00F00B4BF36
:103E30000023272309288CBF4FF027084FF00008E4
:103E4000303630355E4455448DF809608DF80B509E
:103E500002EB1172C1F30356C1F30335C1F3031131
:103E600030363035303430303031B6443032404482
:103E700019444C44AC448DF808208DF80AE08DF8C4
:103E80000CC08DF80D408DF80F008DF80E10F968FC
:103E90000192B1F1204FC1F3036CC1F3035034BF61
:103EA00000262726BCF1090F8CBF4FF027084FF0E2
:103EB0000008C1F303450A28B8BF4FF0000EC1F354
:103EC0000330A8BF4FF0270E092DC1F303248CBF88
:103ED0004FF0270B4FF0000B0A28B4BF0023272315
:103EE000C1F30310092C8CBF4FF0270A4FF0000AD2
:103EF0000A2801F00F00B4BF0022272209288CBF36
:103F00004FF027094FF0000906EB117630353036B7
:103F10005D448DF810608DF81350C1F30356C1F362
:103F20000335C1F3031130360CF1300C303430302E
:103F300030353031C444B6441D44114454444844DF
:103F40008DF811C08DF812E08DF814508DF81540E1
:103F50008DF817008DF8161079893A4BC1F30330AC
:103F60000A28C1F30324C1F30310B4BF4FF0000EBD
:103F70004FF0270E092C8CBF4FF0270C4FF0000C90
:103F80000A2801F00F00B4BF0026272609288CBF9D
:103F900027250025C1F30338C1F3031108F13008C8
:103FA000303430313030C6446444314428448DF8D4
:103FB00018E08DF819408DF81B008DF81A1039891A
:103FC0001846C1F303340A2CC1F30325C1F30314CB
:103FD000B4BF4FF0000E4FF0270E092D8CBF4FF0ED
:103FE000270C4FF0000C0A2C01F00F04B4BF00277F
:103FF0002727092C8CBF27260026C1F30338C1F3DD
:10400000031108F130083035303130343944C644BA
:10401000654434448DF81E10019A30308DF81CE050
:104020008DF81D508DF81F4002A901E011F8012FF5
:1040300023F8022F9842F9D109B0BDE8F08F00BFF4
:10404000E0F7FF1FE8000020F0B5794B7949DB79F4
:1040500004469AB23E2A8281C281A0F8A420A0F828
:10406000B0204B6000F2DB8001335B109B02CB6021
:104070007049D61CCB68C968C3F384230D0446BFBE
:104080005B0120335B00033323F00303C3F50073AC
:104090009BB226F003069E1BB6B25A00710065481B
:1040A00001F1804102F18042634F02F5C04201F507
:1040B000C04103816260C4F8B4200680A160BB786F
:1040C0003B44BB4271D93B462EE002F1806000F5D3
:1040D000C0603E294FEA001069D84D1C6D10AD023A
:1040E000C560CD1C25F00305761B00F14045B6B236
:1040F000A5F5C045B542D0F80CC0D0F80CC063D2CD
:10410000750093F803C005F1804504EB021205F534
:10411000C045C2F810C09181068155601A781344D9
:10412000BA783A44934240D25A78052AF6D15A795D
:104130001979987801EB022110F00F0C89B243D065
:1041400004EB0C0E9EF8842022B994F8C620551C6E
:1041500084F8C650082A37D0A51800068EF88420A7
:1041600085F894C0B1D5C81C20F00300361AB6B249
:10417000B6EB021F4FEA021026D9750093F803E050
:1041800005F1804500F1804C221805F5C0450CF57D
:10419000C04CC2F810E0D181ACF8006095601A788C
:1041A0001344BA783A449342BED301200DE0B1F5EE
:1041B000007F96D801F11F0525F01F05203D6D01F8
:1041C00045F40045C5608CE700204FF404411B4BCB
:1041D0005A6C22F4FE425A64196494F8C630BBB19A
:1041E000002548F280072A46154E930003F18043CC
:1041F00003F5B8431968224492F8942031400A43E9
:104200003A431A6094F8C6300135EAB29342ECD8CA
:1042100080210123094AD164C4F8B830F0BD1F33AE
:1042200023F01F03203B5B0143F40043CB601FE7F7
:104230004C500008006000401C010020005C004061
:104240008087FFFFF0B4B0F8BE50074645FA01F092
:1042500010F001003AD07B1893F8846006F1806377
:1042600003F5C0631B0107EB0614D868B4F80CC053
:10427000C0F30900604528BF604600F1010C636887
:104280004FEA5C045FEA5C0C0CD0651EADB20135F0
:1042900003EB850553F8044B9D4222F8024BF9D1FC
:1042A000B7F8BE500124B30003F1804303F5B843CF
:1042B0001A6804FA01F122F4484222F0F00282F472
:1042C000405225EA0105A7F8BE501A60F0BC7047BD
:1042D000B0F8C0C0F0B54CFA01F4074614F0010084
:1042E0002FD0781890F884E0581C07EB0E1445087E
:1042F0004008A4680AD06E1EB6B2013602EB46062C
:1043000032F8025BB24244F8045BF9D101200EF1AD
:10431000806404F5C0644FEA8E02240102F18042F9
:10432000636002F5B842136800FA01F123F47843A0
:1043300023F0C00383F030032CEA01011360A7F8D7
:10434000C010F0BD2DE9F043002343F210244FF0DC
:104350000111544AA2F85030146090F8C6C0A0F879
:10436000BE30BCF1010FC0F8C01049D9012343F29F
:1043700020071E464C4D13E0B4F80CE09C00BEF143
:10438000000F09D00A4304F1804142F4405201F584
:10439000B8410A6090F8C6C00133DBB29C452FD902
:1043A00000EB03142269B4F80EE005EBC201C21859
:1043B000496892F89420BEF1000FDDD042EA01086E
:1043C0004146B4F80C904FEA830E0EF1804E06FA87
:1043D00002F4224648EA07080EF5B84E41F02001E3
:1043E000B9F1000F31D0B0F8C220CEF8008090F8BB
:1043F000C6C00133DBB214439C45A0F8C240CFD8FD
:10440000D0F8B830033B012B29D9BCF1000F17D0ED
:10441000002448F280062246244D930003F1804395
:1044200003F5B8431968024492F8942029400A43DE
:1044300032431A6090F8C6300134E2B29342ECD8AD
:104440000223C0F8B830BDE8F083B0F8C240CEF81F
:104450000010224390F8C6C0A0F8C2209CE7BCF12F
:10446000000F17D0002448F2800622460F4D93001B
:1044700003F1804303F5B8431968024492F894208D
:1044800029400A4332431A6090F8C6300134E2B240
:104490009342ECD88022034BDA640223C0F8B83090
:1044A000BDE8F083005C0040D04F00088087FFFF2C
:1044B00010B5D0F8B420044653780A2B0FD00B2B3C
:1044C0000BD1137980F8C83000F0C0FA0023012026
:1044D000A4F8A030A4F8A23010BD002010BD012027
:1044E00004F1C803C4E9273010BD00BFD0F8B410F0
:1044F00002464B79022B10D0032B10B424D0012B91
:1045000016D0194A0020136810BC23F4484323F046
:10451000F00383F010031360704700208989134B68
:10452000A2F8A200A2F8A0100120C2F89C307047A7
:1045300000240F4918460B78A2F8A240C2F89C103C
:1045400010BCA2F8A030704700240979094B012063
:1045500053F821301978A2F8A240C2F89C3010BC60
:10456000A2F8A010704700BF005C00401C010020B2
:104570004C5000086801002010B5D0F8B420044663
:104580005378092B06D8DFE803F01A050505052145
:1045900026052A07002010BD04211279B0F8C23088
:1045A00080F8C720C0F8B810A0F8C03000F04CFA6E
:1045B00000230120A4F8A030A4F8A23010BD0222EC
:1045C00000F1BC03C0E92732012010BD137901209E
:1045D00084F8C93010BDBDE81040FFF787BF012047
:1045E00004F1C703C4E9273010BD00BFD0F8B430D0
:1045F0001B7813F01F0305D0012B01D0002070475A
:10460000FFF756BFFFF7B8BFF0B4B0F8AC60B0F832
:10461000AE40A6423DD0B0F8B020351BADB29542B9
:1046200028BF1546D0F8A8206F1C79087F0843687A
:1046300022440ED04C1EA4B2013403EB840453F880
:10464000041B9C4222F8021BF9D1B0F8AC60B0F810
:10465000AE400027144B2A19144992B2A0F8AE209C
:104660005F600B68B24223F4484323F0C00383F435
:10467000405383F030030B60A0F8C47009D0F0BC45
:104680000B6823F4484323F0F00383F480530B605A
:104690007047064AF0BC136823F4484323F0F00344
:1046A00083F440531360704700600040005C00409A
:1046B00070B4B0F8A020B0F8A260B0F8A430921B9B
:1046C00092B29A4228BF1A46A0F8C42002B3511CE5
:1046D0004910D0F89C30013989B2013133448468E3
:1046E00003EB410133F8025B994244F8045BF9D1D2
:1046F000124B13491644A0F8A2605A600B6870BCB4
:1047000023F4784323F0C00383F030030B60704739
:104710000A4B0B495A600B6870BC23F4784323F0B2
:10472000C00383F030030B600B6823F4484323F08D
:10473000F00383F440530B60704700BF00600040FB
:10474000005C004010B5D0F8B43004461B7813F07C
:10475000600F1BD0204600F045F92046FFF7A8FF68
:10476000A3893E2B05D801330E4A5B109B02D36010
:1047700010BDB3F5007FFBD81F3323F01F03203B90
:10478000084A5B0143F40043D36010BDFFF72EFFDE
:10479000D4F8B4301B7803F06003202BDAD0002863
:1047A000DBD1D7E700600040F0B490F8C970FF2F6C
:1047B00024D090F8C630BBB1002448F280062246CF
:1047C0001B4D930003F1804303F5B843196802447D
:1047D00092F8942029400A4332431A6090F8C63078
:1047E0000134E2B29342ECD80322FF23114947F08F
:1047F0008007CF64C0F8B82080F8C930B0F8A02096
:10480000B0F8A2309A420FD1B0F8C43063B9F0BC0E
:10481000084A136823F4784323F0C00383F48053D9
:1048200083F0100313607047F0BCFFF741BF00BF77
:104830008087FFFF005C0040314A70B5536C04462E
:1048400013F00F0325D148F280031568166811682C
:104850001942136846D01B0409D51368360523F4A2
:10486000784323F07003136046D5FFF76BFF2D06E6
:1048700003D4234B1B68180633D5214A2046BDE8D4
:104880007040136823F4F14323F070031360FFF7C3
:104890008BBF9A0002F1804202F5B84211680344CE
:1048A000090493F894500CD501201368B4F8BE1095
:1048B000A84023F47843084323F07003A4F8BE0013
:1048C000136013681B060CD501211368B4F8C000EF
:1048D000A94023F4F143014323F07003A4F8C0106E
:1048E000136070BD23F4784323F0C00383F4805336
:1048F00083F01003136070BDFFF786FEB7E700BFBB
:10490000005C004038B50C4B05465B6C59050FD474
:10491000094C636C1A0405D52846FFF78DFF636CBC
:104920001B04F9D4044A536C23F4FE43536438BD8A
:10493000FFF708FDECE700BF005C004001335808BA
:104940005B080AD0013880B2013001EB400031F839
:10495000023B814242F8043BF9D1704701335808C9
:104960005B080AD0013880B2013001EB400052F8F8
:10497000043B21F8023B8142F9D1704790F8C630E0
:10498000F0B4BBB1002548F280072A460F4E9300D1
:1049900003F1804303F5B8431C68024492F8942065
:1049A000344022433A431A6090F8C6300135EAB2E7
:1049B0009342ECD8FF2906D00323054A41F0800139
:1049C000D164C0F8B830F0BC704700BF8087FFFFEB
:1049D000005C00404322024B9A70FFF735BB00BFDA
:1049E0001C010020D0F8B4301A7802F07F01212990
:1049F00015D15B78212B10D9222B10D1002312F076
:104A0000800F19464FF0000213D1C0F8A810A0F88B
:104A1000AC30A0F8AE20012070471F2B01D8002039
:104A2000704712F0800F4FF008034FF00002054965
:104A3000EBD0C0F89C10A0F8A030A0F8A220012074
:104A4000704700BF60010020704700BF704700BF83
:104A500000B540F22820C2F20000018811F4807FE6
:104A60001EBF05F0FF052943018040F2D000C2F2CD
:104A7000000011F4805F18BF026011F4885F11D14B
:104A80004EF21000CEF2000041F20001C4F201012A
:104A9000836813F4000F0CBF4FF000534FF4005322
:104AA0000B61F5E7FBF748FD40F22C23C2F200034F
:104AB0005B6A07930120019000BD00BF00B540F282
:104AC0002820C2F20000018811F4807F1EBF05F08B
:104AD000FF052943018040F2D000C2F2000011F42A
:104AE000805F18BF0260FBF727FD40F22C23C2F263
:104AF00000035B6A07930220019000BD00B540F2FD
:104B00002820C2F20000018811F4807F1EBF05F04A
:104B1000FF052943018040F2D000C2F2000011F4E9
:104B2000805F18BF026002B440F20000C2F20000D1
:104B3000FFF7E8FE02BC11F4445F08BF00BDFBF7BD
:104B4000FBFC40F22C23C2F200035B6A07930320B4
:104B5000019000BD03E053F8047B45F8047BA342B9
:104B6000F9DBF74645F20006C2F20006A6EB0507A0
:104B70008900B942C8BF3946721A40F2CC06C2F267
:104B80000006326040F2D006C2F200063260F746FC
:104B900042F6004BC4F2010B40F29849C2F2000900
:104BA0004D4640F2282AC2F2000AF046002808BF0B
:104BB000FFF7D0FF40F2D806C2F200063768002F98
:104BC00001BF44F6AC53C0F6000344F61064C0F6CF
:104BD0000004012F01BF44F61063C0F6000344F641
:104BE0003464C0F60004022F01BF44F63463C0F6FB
:104BF000000344F64864C0F60004032F01BF44F6E6
:104C00004863C0F6000344F66464C0F6000400285C
:104C100014BF9C46FFF79EFFC74600BF44F64443BF
:104C2000C0F6000344F6F844C0F60004FFF7B0FFF6
:104C3000FFF798FF002840F60040C4F2010008BFCB
:104C4000CF4600BF4FF480470761876817F4804F55
:104C5000FBD044F60041C2F20001002551F8253096
:104C60001E0E5FFAA3F8846814F4804F6FF30F34BC
:104C700004BF45F400751CE003EA1417B74213D0D3
:104C8000A845F0D095EA080598EA050895EA0805D0
:104C900051F825301E0E03EA1417B74204D05FFA0C
:104CA000A3F54545DAD0F3E75FFA93F70FB13D4638
:104CB000D4E745F4C05525F48075AAF800504EF2AB
:104CC0001001CEF200018F6847EA045742F8047BD6
:104CD0004FF0804747F400470761876817F4004F9B
:104CE000FBD084688F6847EA045742F8047B4FF092
:104CF0000107CBF8007000BFE74600BF44F624531D
:104D0000C0F6000344F6A854C0F60004FFF740FFC5
:104D1000FFF728FF002840F60040C4F2010008BF5A
:104D2000CF4600BF44F60041C2F20001002551F811
:104D300025301E0E5FFAA3F8846803EA1417B74201
:104D400013D0A845F8D095EA080598EA050895EA31
:104D5000080551F825301E0E03EA1417B74204D097
:104D60005FFAA3F54545E2D0F3E75FFA93F70FB199
:104D70003D46DCE745F4C05525F48075AAF800509F
:104D80004EF21001CEF200018F6847EA045742F854
:104D9000047B84688F6847EA045742F8047B4FF02D
:104DA0000107CBF8007000BFE74600BF83688D683D
:104DB00045EA0355A34218BF42F8045B84688D6836
:104DC00045EA04559C4218BF42F8045B83688D682D
:104DD00045EA0355A34218BF42F8045B84688D6816
:104DE00045EA04559C4218BF42F8045B83688D680D
:104DF00045EA0355A34218BF42F8045B84688D68F6
:104E000045EA04559C4218BF42F8045BCEE700BF58
:104E100083688D6845EA0355A34218BF42F8045BD6
:104E200084688D6845EA04559C4218BF42F8045BCB
:104E3000EEE700BF83688D6845EA0355A34218BFBB
:104E400042F8045B1C46F5E783688D6845EA035524
:104E5000A34218BF42F8045B1C4600BF00BF00BF5E
:104E6000F2E700BFFEE700BFFEE700BFFEE700BFBE
:104E7000FEE700BFFEE700BFFEE700BFFEE700BFA2
:104E8000FEE700BFFEE700BFFEE700BFFEE700BF92
:104E9000FEE700BFFEE700BFFEE700BFFEE700BF82
:104EA000FEE700BFFEE700BFFEE700BFFEE700BF72
:104EB000FEE700BFFEE700BFFEE700BFFEE700BF62
:104EC000FEE700BFFEE700BFFEE700BFFEE700BF52
:104ED000FEE700BFFEE700BFFEE700BFFEE700BF42
:104EE000FEE700BFFEE700BFFEE700BFFEE700BF32
:104EF000FEE700BFFEE700BFFEE700BFFEE700BF22
:104F0000FEE700BFFEE700BFFEE700BFFEE700BF11
:104F1000FEE700BFFEE700BFFEE700BFFEE700BF01
:104F2000FEE700BFFEE700BFFEE700BFFEE700BFF1
:104F3000FEE700BFFEE700BFFEE700BFFEE700BFE1
:104F4000FEE700BFFEE700BF684620F007018D4680
:104F50000F4A01B50F48801A08D00F490B46084484
:104F600013F8011B984202F8011BF9D10B4A0C4BB4
:104F70009A4204D0002103F8011B9342FBD1094A55
:104F8000094B9A6000F06CF8BDE801408546704717
:104F90000000002078010020CC53000854020020BB
:104FA000780100200000000800ED00E0F29EC4AA95
:104FB000DFD8CA8FBDBEA9FE8399D1AEEB00000039
:104FC00000010102010202030102020302030304C1
:104FD00000060000000200000006000000040000BF
:104FE00000060000000000000006000000060000AF
:104FF0002603530054004D006900630072006F00E7
:1050000065006C0065006300740072006F006E0044
:105010006900630073000000040309042E035300B9
:1050200054004D0033003200200056006900720029
:105030007400750061006C00200043004F004D00BB
:10504000200050006F007200740000001201000286
:0E5050000200004083044057000201020301E9
:1050600080B5B24F00253846FEF7A8FEFBF786FA5A
:105070004FF080724FF400514FF08834AC4BAD4884
:105080005A60426842F47F224260AB48C3F80C5C2D
:10509000AA4AD3F8005CC3F8000CD3F8040CC3F898
:1050A000044C11615368384623F4700343F4C00381
:1050B00053601161FFF78EFC08B988E000BFD7F894
:1050C000B830042BFAD1FDF769F940F22C20C2F276
:1050D0000000EC460FF2080E80E8F05F002000BFF1
:1050E00000BF00BF00BF00BF40F22C21C2F2000190
:1050F00091E8F05FE54640F22A21C2F20001087013
:105100008F4C94F8AA10002935D0B4F8A820C2F327
:105110000C00002800F0EF804FF04046894D6B688E
:1051200023F4700343F480036B602E61550500F196
:105130001181D7F8D020844B61709A4288BFC7F89C
:10514000D030D7E933239B1A9B10D7E935127C4E18
:105150002270764D8B80488000E030BF06233246B7
:1051600001212846FFF7B4F80028F6D00023A4F860
:10517000A83084F8AA304FF00052704B734D1A617A
:10518000DFF8CC81D4F88420A5F1400632B9284656
:10519000FBF706F9D4F88420002AF8D0D4F8801060
:1051A00001F03F03234493F84030112B00F29B8021
:1051B00083B1013B102B0DD8DFE803F07A5D585323
:1051C0000C4E49443F3A35302B26211C170000BFB6
:1051D00000BFFCE7042A104628BF04200B1803F088
:1051E0003F03121AC4E92032D0E7FEF78BFDD4F852
:1051F0008420CBE7FEF758FDD4F88420C6E7FEF7FD
:10520000C7F9D4F88420C1E7FCF790FCD4F88420D7
:10521000BCE7FEF7FBFBD4F88420B7E7FEF7B6F84F
:10522000D4F88420B2E7FEF797FAD4F88420ADE7EB
:10523000FEF766FBD4F88420A8E7FDF799FFD4F8C1
:105240008420A3E7FDF7F6F8D4F884209EE7FCF766
:10525000A1FCD4F8842099E7FCF7F0FFD4F884206F
:1052600094E7FDF7ADF9D4F884208FE7FCF726FC2E
:10527000D4F884208AE7042A134628BF04234FF475
:10528000106C0220194401F03F01D31AC4E9201325
:10529000DFF89890A4F800C0A07000E030BF0323AE
:1052A000324601214846FFF713F80028F6D071E78F
:1052B000042A134628BF0423D7F8E000194401F05C
:1052C0003F01D31AC4E92013DFF86090C0F80080D2
:1052D00000E030BF0423324601214846FEF7F8FFC4
:1052E0000028F6D056E7F22B7FF474AFFDF756F89E
:1052F000D4F884204AE793047FF538AF4FF0663640
:105300004FF044350B4BA046D8601A681E601A68EF
:105310001D60064D217000E030BF01234246194652
:105320002846FEF7D5FF0028F6D01FE70000002032
:105330000000014000080140888488880010014076
:1053400080010020000C014000500020C00100201E
:10535000F57A01EAFBF7C6FCB4F8A810CA0509D52E
:1053600008200022D7F8D030C4F89C00A4F8982078
:10537000C7F8CC30032394F8A4002370A07094F8ED
:10538000A050D4F89C20B4F8980084F8AA30D7F83C
:10539000D4306570E270074E074DD980988000E0E8
:1053A00030BF0823324601212846FEF791FF00282E
:1053B000F6D0DBE680010020000000200022024B36
:0C53C000C3E92022704700BF80010020DC
:1053CC0000000000000000000000000000000000D1
:1053DC0000000000000000000000000000000000C1
:1053EC0000000000000000000000000000000000B1
:1053FC0000000000000000000000000000000000A1
:10540C000000000000000000000000000000000090
:10541C000000000000000000000000000000000080
:10542C000000000000000000000000000000000070
:10543C000000000000000000000000000000000060
:10544C000000000000000000000000000000000050
:10545C000000000000000000000000000000000040
:10546C000000000000000000000000000000000030
:10547C000000000000000000000000000000000020
:10548C00000000000000010000FF000000500020A0
:10549C000050002080010020FF000000004C002084
:1054AC008001002008070000340330003000300079
:1054BC003000300030003000300030003000300060
:1054CC003000300030003000300030003000300050
:1054DC0030003000300030003000000009020000C5
:1054EC00020100C03209040000010202010005247F
:1054FC000010010524010001042402020524060009
:10550C0001070582030800FF09040100020A0000DC
:10551C00000705030240000007058102400000005F
:10552C00802500000000080018500008F04F00080B
:08553C001C500008E8000020EB
:04554400BD5300084B
:105624000000000000000000000000000000000076
:105634000000000000000000000000000000000066
:105644000000000000000000000000000000000056
:105654000000000000000000000000000000000046
:045864000000000040
:0400000508004F4957
:00000001FF
